{
	"_format": "hh-sol-artifact-1",
	"contractName": "Portfolio",
	"sourceName": "contracts/Portfolio.sol",
	"abi": [
		{
			"inputs": [
				{
					"internalType": "string",
					"name": "name_",
					"type": "string"
				},
				{
					"internalType": "string",
					"name": "symbol_",
					"type": "string"
				},
				{
					"internalType": "address[]",
					"name": "tokenAddresses_",
					"type": "address[]"
				},
				{
					"internalType": "uint256[]",
					"name": "percentageHoldings_",
					"type": "uint256[]"
				},
				{
					"internalType": "address",
					"name": "owner_",
					"type": "address"
				},
				{
					"internalType": "uint256",
					"name": "ownerFee_",
					"type": "uint256"
				}
			],
			"stateMutability": "nonpayable",
			"type": "constructor"
		},
		{
			"anonymous": false,
			"inputs": [
				{
					"indexed": true,
					"internalType": "address",
					"name": "owner",
					"type": "address"
				},
				{
					"indexed": true,
					"internalType": "address",
					"name": "spender",
					"type": "address"
				},
				{
					"indexed": false,
					"internalType": "uint256",
					"name": "value",
					"type": "uint256"
				}
			],
			"name": "Approval",
			"type": "event"
		},
		{
			"anonymous": false,
			"inputs": [
				{
					"indexed": true,
					"internalType": "address",
					"name": "_from",
					"type": "address"
				},
				{
					"indexed": false,
					"internalType": "uint256",
					"name": "_depositAmount",
					"type": "uint256"
				},
				{
					"indexed": false,
					"internalType": "uint256",
					"name": "_priorValueLocked",
					"type": "uint256"
				},
				{
					"indexed": false,
					"internalType": "uint256",
					"name": "_tokensMinted",
					"type": "uint256"
				}
			],
			"name": "Buy",
			"type": "event"
		},
		{
			"anonymous": false,
			"inputs": [
				{
					"indexed": true,
					"internalType": "address",
					"name": "_from",
					"type": "address"
				},
				{
					"indexed": false,
					"internalType": "uint256",
					"name": "_tokensBurned",
					"type": "uint256"
				}
			],
			"name": "RedeemAssets",
			"type": "event"
		},
		{
			"anonymous": false,
			"inputs": [
				{
					"indexed": true,
					"internalType": "address",
					"name": "_from",
					"type": "address"
				},
				{
					"indexed": false,
					"internalType": "uint256",
					"name": "_tokensBurned",
					"type": "uint256"
				},
				{
					"indexed": false,
					"internalType": "uint256",
					"name": "returnedEth",
					"type": "uint256"
				}
			],
			"name": "SellAssets",
			"type": "event"
		},
		{
			"anonymous": false,
			"inputs": [
				{
					"indexed": true,
					"internalType": "address",
					"name": "from",
					"type": "address"
				},
				{
					"indexed": true,
					"internalType": "address",
					"name": "to",
					"type": "address"
				},
				{
					"indexed": false,
					"internalType": "uint256",
					"name": "value",
					"type": "uint256"
				}
			],
			"name": "Transfer",
			"type": "event"
		},
		{
			"inputs": [
				{
					"internalType": "address",
					"name": "owner",
					"type": "address"
				},
				{
					"internalType": "address",
					"name": "spender",
					"type": "address"
				}
			],
			"name": "allowance",
			"outputs": [
				{
					"internalType": "uint256",
					"name": "",
					"type": "uint256"
				}
			],
			"stateMutability": "view",
			"type": "function"
		},
		{
			"inputs": [
				{
					"internalType": "address",
					"name": "spender",
					"type": "address"
				},
				{
					"internalType": "uint256",
					"name": "amount",
					"type": "uint256"
				}
			],
			"name": "approve",
			"outputs": [
				{
					"internalType": "bool",
					"name": "",
					"type": "bool"
				}
			],
			"stateMutability": "nonpayable",
			"type": "function"
		},
		{
			"inputs": [
				{
					"internalType": "address",
					"name": "",
					"type": "address"
				}
			],
			"name": "assetQuantities",
			"outputs": [
				{
					"internalType": "uint256",
					"name": "",
					"type": "uint256"
				}
			],
			"stateMutability": "view",
			"type": "function"
		},
		{
			"inputs": [
				{
					"internalType": "address",
					"name": "account",
					"type": "address"
				}
			],
			"name": "balanceOf",
			"outputs": [
				{
					"internalType": "uint256",
					"name": "",
					"type": "uint256"
				}
			],
			"stateMutability": "view",
			"type": "function"
		},
		{
			"inputs": [],
			"name": "buy",
			"outputs": [],
			"stateMutability": "payable",
			"type": "function"
		},
		{
			"inputs": [],
			"name": "decimals",
			"outputs": [
				{
					"internalType": "uint8",
					"name": "",
					"type": "uint8"
				}
			],
			"stateMutability": "view",
			"type": "function"
		},
		{
			"inputs": [
				{
					"internalType": "address",
					"name": "spender",
					"type": "address"
				},
				{
					"internalType": "uint256",
					"name": "subtractedValue",
					"type": "uint256"
				}
			],
			"name": "decreaseAllowance",
			"outputs": [
				{
					"internalType": "bool",
					"name": "",
					"type": "bool"
				}
			],
			"stateMutability": "nonpayable",
			"type": "function"
		},
		{
			"inputs": [],
			"name": "getPercentageHoldings",
			"outputs": [
				{
					"internalType": "uint256[]",
					"name": "",
					"type": "uint256[]"
				}
			],
			"stateMutability": "view",
			"type": "function"
		},
		{
			"inputs": [],
			"name": "getTokenAddresses",
			"outputs": [
				{
					"internalType": "address[]",
					"name": "",
					"type": "address[]"
				}
			],
			"stateMutability": "view",
			"type": "function"
		},
		{
			"inputs": [
				{
					"internalType": "address",
					"name": "spender",
					"type": "address"
				},
				{
					"internalType": "uint256",
					"name": "addedValue",
					"type": "uint256"
				}
			],
			"name": "increaseAllowance",
			"outputs": [
				{
					"internalType": "bool",
					"name": "",
					"type": "bool"
				}
			],
			"stateMutability": "nonpayable",
			"type": "function"
		},
		{
			"inputs": [],
			"name": "initialisePortfolio",
			"outputs": [],
			"stateMutability": "payable",
			"type": "function"
		},
		{
			"inputs": [],
			"name": "name",
			"outputs": [
				{
					"internalType": "string",
					"name": "",
					"type": "string"
				}
			],
			"stateMutability": "view",
			"type": "function"
		},
		{
			"inputs": [],
			"name": "owner",
			"outputs": [
				{
					"internalType": "address",
					"name": "",
					"type": "address"
				}
			],
			"stateMutability": "view",
			"type": "function"
		},
		{
			"inputs": [],
			"name": "ownerFee",
			"outputs": [
				{
					"internalType": "uint256",
					"name": "",
					"type": "uint256"
				}
			],
			"stateMutability": "view",
			"type": "function"
		},
		{
			"inputs": [
				{
					"internalType": "uint256",
					"name": "",
					"type": "uint256"
				}
			],
			"name": "percentageHoldings",
			"outputs": [
				{
					"internalType": "uint256",
					"name": "",
					"type": "uint256"
				}
			],
			"stateMutability": "view",
			"type": "function"
		},
		{
			"inputs": [
				{
					"internalType": "uint256",
					"name": "tokensToSell",
					"type": "uint256"
				}
			],
			"name": "redeemAssets",
			"outputs": [],
			"stateMutability": "nonpayable",
			"type": "function"
		},
		{
			"inputs": [
				{
					"internalType": "uint256",
					"name": "tokensToSell",
					"type": "uint256"
				}
			],
			"name": "sellAssets",
			"outputs": [],
			"stateMutability": "nonpayable",
			"type": "function"
		},
		{
			"inputs": [],
			"name": "symbol",
			"outputs": [
				{
					"internalType": "string",
					"name": "",
					"type": "string"
				}
			],
			"stateMutability": "view",
			"type": "function"
		},
		{
			"inputs": [
				{
					"internalType": "uint256",
					"name": "",
					"type": "uint256"
				}
			],
			"name": "tokenAddresses",
			"outputs": [
				{
					"internalType": "address",
					"name": "",
					"type": "address"
				}
			],
			"stateMutability": "view",
			"type": "function"
		},
		{
			"inputs": [],
			"name": "totalSupply",
			"outputs": [
				{
					"internalType": "uint256",
					"name": "",
					"type": "uint256"
				}
			],
			"stateMutability": "view",
			"type": "function"
		},
		{
			"inputs": [
				{
					"internalType": "address",
					"name": "to",
					"type": "address"
				},
				{
					"internalType": "uint256",
					"name": "amount",
					"type": "uint256"
				}
			],
			"name": "transfer",
			"outputs": [
				{
					"internalType": "bool",
					"name": "",
					"type": "bool"
				}
			],
			"stateMutability": "nonpayable",
			"type": "function"
		},
		{
			"inputs": [
				{
					"internalType": "address",
					"name": "from",
					"type": "address"
				},
				{
					"internalType": "address",
					"name": "to",
					"type": "address"
				},
				{
					"internalType": "uint256",
					"name": "amount",
					"type": "uint256"
				}
			],
			"name": "transferFrom",
			"outputs": [
				{
					"internalType": "bool",
					"name": "",
					"type": "bool"
				}
			],
			"stateMutability": "nonpayable",
			"type": "function"
		},
		{
			"stateMutability": "payable",
			"type": "receive"
		}
	],
	"bytecode": "0x60806040523480156200001157600080fd5b506040516200464f3803806200464f833981810160405281019062000037919062000691565b8585816003908051906020019062000051929190620002f8565b5080600490805190602001906200006a929190620002f8565b5050508251845114620000b4576040517f08c379a0000000000000000000000000000000000000000000000000000000008152600401620000ab906200081e565b60405180910390fd5b6064620000c7846200029760201b60201c565b146200010a576040517f08c379a0000000000000000000000000000000000000000000000000000000008152600401620001019062000840565b60405180910390fd5b600060075410158015620001215750612710600754105b62000163576040517f08c379a00000000000000000000000000000000000000000000000000000000081526004016200015a9062000862565b60405180910390fd5b83600590805190602001906200017b92919062000389565b5082600690805190602001906200019492919062000418565b5081600860006101000a81548173ffffffffffffffffffffffffffffffffffffffff021916908373ffffffffffffffffffffffffffffffffffffffff1602179055508060078190555060005b6005805490508110156200028a57600060096000600584815481106200020b576200020a62000b3b565b5b9060005260206000200160009054906101000a900473ffffffffffffffffffffffffffffffffffffffff1673ffffffffffffffffffffffffffffffffffffffff1673ffffffffffffffffffffffffffffffffffffffff168152602001908152602001600020819055508080620002819062000a8f565b915050620001e0565b5050505050505062000d0a565b6000806000905060005b8351811015620002ee57838181518110620002c157620002c062000b3b565b5b602002602001015182620002d6919062000952565b91508080620002e59062000a8f565b915050620002a1565b5080915050919050565b828054620003069062000a23565b90600052602060002090601f0160209004810192826200032a576000855562000376565b82601f106200034557805160ff191683800117855562000376565b8280016001018555821562000376579182015b828111156200037557825182559160200191906001019062000358565b5b5090506200038591906200046a565b5090565b82805482825590600052602060002090810192821562000405579160200282015b82811115620004045782518260006101000a81548173ffffffffffffffffffffffffffffffffffffffff021916908373ffffffffffffffffffffffffffffffffffffffff16021790555091602001919060010190620003aa565b5b5090506200041491906200046a565b5090565b82805482825590600052602060002090810192821562000457579160200282015b828111156200045657825182559160200191906001019062000439565b5b5090506200046691906200046a565b5090565b5b80821115620004855760008160009055506001016200046b565b5090565b6000620004a06200049a84620008ad565b62000884565b90508083825260208201905082856020860282011115620004c657620004c562000b9e565b5b60005b85811015620004fa5781620004df8882620005ca565b845260208401935060208301925050600181019050620004c9565b5050509392505050565b60006200051b6200051584620008dc565b62000884565b9050808382526020820190508285602086028201111562000541576200054062000b9e565b5b60005b858110156200057557816200055a88826200067a565b84526020840193506020830192505060018101905062000544565b5050509392505050565b60006200059662000590846200090b565b62000884565b905082815260208101848484011115620005b557620005b462000ba3565b5b620005c2848285620009ed565b509392505050565b600081519050620005db8162000cd6565b92915050565b600082601f830112620005f957620005f862000b99565b5b81516200060b84826020860162000489565b91505092915050565b600082601f8301126200062c576200062b62000b99565b5b81516200063e84826020860162000504565b91505092915050565b600082601f8301126200065f576200065e62000b99565b5b8151620006718482602086016200057f565b91505092915050565b6000815190506200068b8162000cf0565b92915050565b60008060008060008060c08789031215620006b157620006b062000bad565b5b600087015167ffffffffffffffff811115620006d257620006d162000ba8565b5b620006e089828a0162000647565b965050602087015167ffffffffffffffff81111562000704576200070362000ba8565b5b6200071289828a0162000647565b955050604087015167ffffffffffffffff81111562000736576200073562000ba8565b5b6200074489828a01620005e1565b945050606087015167ffffffffffffffff81111562000768576200076762000ba8565b5b6200077689828a0162000614565b93505060806200078989828a01620005ca565b92505060a06200079c89828a016200067a565b9150509295509295509295565b6000620007b860488362000941565b9150620007c58262000bc3565b606082019050919050565b6000620007df60238362000941565b9150620007ec8262000c38565b604082019050919050565b60006200080660318362000941565b9150620008138262000c87565b604082019050919050565b600060208201905081810360008301526200083981620007a9565b9050919050565b600060208201905081810360008301526200085b81620007d0565b9050919050565b600060208201905081810360008301526200087d81620007f7565b9050919050565b600062000890620008a3565b90506200089e828262000a59565b919050565b6000604051905090565b600067ffffffffffffffff821115620008cb57620008ca62000b6a565b5b602082029050602081019050919050565b600067ffffffffffffffff821115620008fa57620008f962000b6a565b5b602082029050602081019050919050565b600067ffffffffffffffff82111562000929576200092862000b6a565b5b620009348262000bb2565b9050602081019050919050565b600082825260208201905092915050565b60006200095f82620009e3565b91506200096c83620009e3565b9250827fffffffffffffffffffffffffffffffffffffffffffffffffffffffffffffffff03821115620009a457620009a362000add565b5b828201905092915050565b6000620009bc82620009c3565b9050919050565b600073ffffffffffffffffffffffffffffffffffffffff82169050919050565b6000819050919050565b60005b8381101562000a0d578082015181840152602081019050620009f0565b8381111562000a1d576000848401525b50505050565b6000600282049050600182168062000a3c57607f821691505b6020821081141562000a535762000a5262000b0c565b5b50919050565b62000a648262000bb2565b810181811067ffffffffffffffff8211171562000a865762000a8562000b6a565b5b80604052505050565b600062000a9c82620009e3565b91507fffffffffffffffffffffffffffffffffffffffffffffffffffffffffffffffff82141562000ad25762000ad162000add565b5b600182019050919050565b7f4e487b7100000000000000000000000000000000000000000000000000000000600052601160045260246000fd5b7f4e487b7100000000000000000000000000000000000000000000000000000000600052602260045260246000fd5b7f4e487b7100000000000000000000000000000000000000000000000000000000600052603260045260246000fd5b7f4e487b7100000000000000000000000000000000000000000000000000000000600052604160045260246000fd5b600080fd5b600080fd5b600080fd5b600080fd5b600080fd5b6000601f19601f8301169050919050565b7f506c656173652073706563696679207468652073616d65206e756d626572206f60008201527f6620746f6b656e206164647265737365732061732070657263656e746167652060208201527f686f6c64696e6773000000000000000000000000000000000000000000000000604082015250565b7f50657263656e7461676520686f6c64696e6773206d7573742073756d20746f2060008201527f3130300000000000000000000000000000000000000000000000000000000000602082015250565b7f4f776e657220466565206d757374206265206265747765656e2030202830252960008201527f20616e6420313030303020283130302529000000000000000000000000000000602082015250565b62000ce181620009af565b811462000ced57600080fd5b50565b62000cfb81620009e3565b811462000d0757600080fd5b50565b6139358062000d1a6000396000f3fe6080604052600436106101395760003560e01c8063a457c2d7116100ab578063da1593201161006f578063da1593201461042f578063dd62ed3e1461046c578063e589a316146104a9578063e5df8b84146104d2578063ed7425b21461050f578063ee8c24b81461053a57610140565b8063a457c2d714610343578063a6f2ae3a14610380578063a9059cbb1461038a578063af8326fb146103c7578063d5b2a01a1461040457610140565b8063313ce567116100fd578063313ce5671461023e578063395093511461026957806359068fed146102a657806370a08231146102b05780638da5cb5b146102ed57806395d89b411461031857610140565b806306fdde0314610145578063095ea7b31461017057806318160ddd146101ad57806323b872dd146101d85780632b9459f81461021557610140565b3661014057005b600080fd5b34801561015157600080fd5b5061015a610565565b6040516101679190612c73565b60405180910390f35b34801561017c57600080fd5b5061019760048036038101906101929190612652565b6105f7565b6040516101a49190612c58565b60405180910390f35b3480156101b957600080fd5b506101c261061a565b6040516101cf9190612eb1565b60405180910390f35b3480156101e457600080fd5b506101ff60048036038101906101fa91906125ff565b610624565b60405161020c9190612c58565b60405180910390f35b34801561022157600080fd5b5061023c600480360381019061023791906126bf565b610653565b005b34801561024a57600080fd5b50610253610973565b6040516102609190612f2c565b60405180910390f35b34801561027557600080fd5b50610290600480360381019061028b9190612652565b61097c565b60405161029d9190612c58565b60405180910390f35b6102ae610a26565b005b3480156102bc57600080fd5b506102d760048036038101906102d29190612592565b610d7e565b6040516102e49190612eb1565b60405180910390f35b3480156102f957600080fd5b50610302610dc6565b60405161030f9190612bd0565b60405180910390f35b34801561032457600080fd5b5061032d610dec565b60405161033a9190612c73565b60405180910390f35b34801561034f57600080fd5b5061036a60048036038101906103659190612652565b610e7e565b6040516103779190612c58565b60405180910390f35b610388610f68565b005b34801561039657600080fd5b506103b160048036038101906103ac9190612652565b611118565b6040516103be9190612c58565b60405180910390f35b3480156103d357600080fd5b506103ee60048036038101906103e991906126bf565b61113b565b6040516103fb9190612eb1565b60405180910390f35b34801561041057600080fd5b5061041961115f565b6040516104269190612eb1565b60405180910390f35b34801561043b57600080fd5b5061045660048036038101906104519190612592565b611165565b6040516104639190612eb1565b60405180910390f35b34801561047857600080fd5b50610493600480360381019061048e91906125bf565b61117d565b6040516104a09190612eb1565b60405180910390f35b3480156104b557600080fd5b506104d060048036038101906104cb91906126bf565b611204565b005b3480156104de57600080fd5b506104f960048036038101906104f491906126bf565b611627565b6040516105069190612bd0565b60405180910390f35b34801561051b57600080fd5b50610524611666565b6040516105319190612c36565b60405180910390f35b34801561054657600080fd5b5061054f6116be565b60405161055c9190612c14565b60405180910390f35b60606003805461057490613308565b80601f01602080910402602001604051908101604052809291908181526020018280546105a090613308565b80156105ed5780601f106105c2576101008083540402835291602001916105ed565b820191906000526020600020905b8154815290600101906020018083116105d057829003601f168201915b5050505050905090565b60008061060261174c565b905061060f818585611754565b600191505092915050565b6000600254905090565b60008061062f61174c565b905061063c85828561191f565b6106478585856119ab565b60019150509392505050565b600061065d61061a565b1161069d576040517f08c379a000000000000000000000000000000000000000000000000000000000815260040161069490612df5565b60405180910390fd5b806106a733610d7e565b10156106e8576040517f08c379a00000000000000000000000000000000000000000000000000000000081526004016106df90612d75565b60405180910390fd5b60006106f261061a565b90506106fe3383611c2c565b60005b600580549050811015610920576000600960006005848154811061072857610727613410565b5b9060005260206000200160009054906101000a900473ffffffffffffffffffffffffffffffffffffffff1673ffffffffffffffffffffffffffffffffffffffff1673ffffffffffffffffffffffffffffffffffffffff168152602001908152602001600020549050600083858361079f91906131e3565b6107a99190613041565b90508060096000600586815481106107c4576107c3613410565b5b9060005260206000200160009054906101000a900473ffffffffffffffffffffffffffffffffffffffff1673ffffffffffffffffffffffffffffffffffffffff1673ffffffffffffffffffffffffffffffffffffffff1681526020019081526020016000206000828254610838919061323d565b925050819055506005838154811061085357610852613410565b5b9060005260206000200160009054906101000a900473ffffffffffffffffffffffffffffffffffffffff1673ffffffffffffffffffffffffffffffffffffffff1663a9059cbb33836040518363ffffffff1660e01b81526004016108b8929190612beb565b602060405180830381600087803b1580156108d257600080fd5b505af11580156108e6573d6000803e3d6000fd5b505050506040513d601f19601f8201168201806040525081019061090a9190612692565b50505080806109189061333a565b915050610701565b503373ffffffffffffffffffffffffffffffffffffffff167f58d54673289de1ef334d6e92e86774f9f70feffd57198f96808ccc4d8db8ae4d836040516109679190612eb1565b60405180910390a25050565b60006012905090565b60008061098761174c565b9050610a1b818585600160008673ffffffffffffffffffffffffffffffffffffffff1673ffffffffffffffffffffffffffffffffffffffff16815260200190815260200160002060008973ffffffffffffffffffffffffffffffffffffffff1673ffffffffffffffffffffffffffffffffffffffff16815260200190815260200160002054610a169190612feb565b611754565b600191505092915050565b3373ffffffffffffffffffffffffffffffffffffffff16600860009054906101000a900473ffffffffffffffffffffffffffffffffffffffff1673ffffffffffffffffffffffffffffffffffffffff1614610ab6576040517f08c379a0000000000000000000000000000000000000000000000000000000008152600401610aad90612d15565b60405180910390fd5b6000610ac061061a565b14610b00576040517f08c379a0000000000000000000000000000000000000000000000000000000008152600401610af790612d95565b60405180910390fd5b60003411610b43576040517f08c379a0000000000000000000000000000000000000000000000000000000008152600401610b3a90612e35565b60405180910390fd5b73d0a1e359811322d97991e03f863a0c30c2cf029c73ffffffffffffffffffffffffffffffffffffffff1663d0e30db0346040518263ffffffff1660e01b81526004016000604051808303818588803b158015610b9f57600080fd5b505af1158015610bb3573d6000803e3d6000fd5b50505050506000610bd873d0a1e359811322d97991e03f863a0c30c2cf029c30611e03565b905060005b600580549050811015610d2f576000606460068381548110610c0257610c01613410565b5b906000526020600020015484610c1891906131e3565b610c229190613041565b90506000610c8473d0a1e359811322d97991e03f863a0c30c2cf029c60058581548110610c5257610c51613410565b5b9060005260206000200160009054906101000a900473ffffffffffffffffffffffffffffffffffffffff168430611e96565b9050806009600060058681548110610c9f57610c9e613410565b5b9060005260206000200160009054906101000a900473ffffffffffffffffffffffffffffffffffffffff1673ffffffffffffffffffffffffffffffffffffffff1673ffffffffffffffffffffffffffffffffffffffff1681526020019081526020016000206000828254610d139190612feb565b9250508190555050508080610d279061333a565b915050610bdd565b50610d7b600860009054906101000a900473ffffffffffffffffffffffffffffffffffffffff16610d5e610973565b600a610d6a91906130c5565b6064610d7691906131e3565b611f08565b50565b60008060008373ffffffffffffffffffffffffffffffffffffffff1673ffffffffffffffffffffffffffffffffffffffff168152602001908152602001600020549050919050565b600860009054906101000a900473ffffffffffffffffffffffffffffffffffffffff1681565b606060048054610dfb90613308565b80601f0160208091040260200160405190810160405280929190818152602001828054610e2790613308565b8015610e745780601f10610e4957610100808354040283529160200191610e74565b820191906000526020600020905b815481529060010190602001808311610e5757829003601f168201915b5050505050905090565b600080610e8961174c565b90506000600160008373ffffffffffffffffffffffffffffffffffffffff1673ffffffffffffffffffffffffffffffffffffffff16815260200190815260200160002060008673ffffffffffffffffffffffffffffffffffffffff1673ffffffffffffffffffffffffffffffffffffffff16815260200190815260200160002054905083811015610f4f576040517f08c379a0000000000000000000000000000000000000000000000000000000008152600401610f4690612e55565b60405180910390fd5b610f5c8286868403611754565b60019250505092915050565b6000610f7261061a565b11610fb2576040517f08c379a0000000000000000000000000000000000000000000000000000000008152600401610fa990612df5565b60405180910390fd5b73d0a1e359811322d97991e03f863a0c30c2cf029c73ffffffffffffffffffffffffffffffffffffffff1663d0e30db0346040518263ffffffff1660e01b81526004016000604051808303818588803b15801561100e57600080fd5b505af1158015611022573d6000803e3d6000fd5b5050505050600061103234612068565b90506000813461104061061a565b61104a91906131e3565b6110549190613041565b905060006127106007548361106991906131e3565b6110739190613041565b905061108a338284611085919061323d565b611f08565b6110b6600860009054906101000a900473ffffffffffffffffffffffffffffffffffffffff1682611f08565b3373ffffffffffffffffffffffffffffffffffffffff167fbeae048c6d270d9469f86cf6e8fedda3c60ad770f16c24c9fc131c8e9a09101d348584866110fc919061323d565b60405161110b93929190612ef5565b60405180910390a2505050565b60008061112361174c565b90506111308185856119ab565b600191505092915050565b6006818154811061114b57600080fd5b906000526020600020016000915090505481565b60075481565b60096020528060005260406000206000915090505481565b6000600160008473ffffffffffffffffffffffffffffffffffffffff1673ffffffffffffffffffffffffffffffffffffffff16815260200190815260200160002060008373ffffffffffffffffffffffffffffffffffffffff1673ffffffffffffffffffffffffffffffffffffffff16815260200190815260200160002054905092915050565b600061120e61061a565b1161124e576040517f08c379a000000000000000000000000000000000000000000000000000000000815260040161124590612df5565b60405180910390fd5b8061125833610d7e565b1015611299576040517f08c379a000000000000000000000000000000000000000000000000000000000815260040161129090612d75565b60405180910390fd5b60006112a361061a565b90506112af3383611c2c565b6000805b60058054905081101561150b57600060096000600584815481106112da576112d9613410565b5b9060005260206000200160009054906101000a900473ffffffffffffffffffffffffffffffffffffffff1673ffffffffffffffffffffffffffffffffffffffff1673ffffffffffffffffffffffffffffffffffffffff168152602001908152602001600020549050600084868361135191906131e3565b61135b9190613041565b905080600960006005868154811061137657611375613410565b5b9060005260206000200160009054906101000a900473ffffffffffffffffffffffffffffffffffffffff1673ffffffffffffffffffffffffffffffffffffffff1673ffffffffffffffffffffffffffffffffffffffff16815260200190815260200160002060008282546113ea919061323d565b9250508190555073d0a1e359811322d97991e03f863a0c30c2cf029c73ffffffffffffffffffffffffffffffffffffffff16600584815481106114305761142f613410565b5b9060005260206000200160009054906101000a900473ffffffffffffffffffffffffffffffffffffffff1673ffffffffffffffffffffffffffffffffffffffff16141561148a5780846114839190612feb565b93506114f6565b6114e8600584815481106114a1576114a0613410565b5b9060005260206000200160009054906101000a900473ffffffffffffffffffffffffffffffffffffffff1673d0a1e359811322d97991e03f863a0c30c2cf029c833061226f565b846114f39190612feb565b93505b505080806115039061333a565b9150506112b3565b5073d0a1e359811322d97991e03f863a0c30c2cf029c73ffffffffffffffffffffffffffffffffffffffff16632e1a7d4d826040518263ffffffff1660e01b81526004016115599190612eb1565b600060405180830381600087803b15801561157357600080fd5b505af1158015611587573d6000803e3d6000fd5b505050503373ffffffffffffffffffffffffffffffffffffffff166108fc829081150290604051600060405180830381858888f193505050501580156115d1573d6000803e3d6000fd5b503373ffffffffffffffffffffffffffffffffffffffff167fad7bd68b2ff56e7b2ab7376d3ef261aa314370d2621de10949ba197082a85133848360405161161a929190612ecc565b60405180910390a2505050565b6005818154811061163757600080fd5b906000526020600020016000915054906101000a900473ffffffffffffffffffffffffffffffffffffffff1681565b606060068054806020026020016040519081016040528092919081815260200182805480156116b457602002820191906000526020600020905b8154815260200190600101908083116116a0575b5050505050905090565b6060600580548060200260200160405190810160405280929190818152602001828054801561174257602002820191906000526020600020905b8160009054906101000a900473ffffffffffffffffffffffffffffffffffffffff1673ffffffffffffffffffffffffffffffffffffffff16815260200190600101908083116116f8575b5050505050905090565b600033905090565b600073ffffffffffffffffffffffffffffffffffffffff168373ffffffffffffffffffffffffffffffffffffffff1614156117c4576040517f08c379a00000000000000000000000000000000000000000000000000000000081526004016117bb90612e15565b60405180910390fd5b600073ffffffffffffffffffffffffffffffffffffffff168273ffffffffffffffffffffffffffffffffffffffff161415611834576040517f08c379a000000000000000000000000000000000000000000000000000000000815260040161182b90612cf5565b60405180910390fd5b80600160008573ffffffffffffffffffffffffffffffffffffffff1673ffffffffffffffffffffffffffffffffffffffff16815260200190815260200160002060008473ffffffffffffffffffffffffffffffffffffffff1673ffffffffffffffffffffffffffffffffffffffff168152602001908152602001600020819055508173ffffffffffffffffffffffffffffffffffffffff168373ffffffffffffffffffffffffffffffffffffffff167f8c5be1e5ebec7d5bd14f71427d1e84f3dd0314c0f7b2291e5b200ac8c7c3b925836040516119129190612eb1565b60405180910390a3505050565b600061192b848461117d565b90507fffffffffffffffffffffffffffffffffffffffffffffffffffffffffffffffff81146119a55781811015611997576040517f08c379a000000000000000000000000000000000000000000000000000000000815260040161198e90612d35565b60405180910390fd5b6119a48484848403611754565b5b50505050565b600073ffffffffffffffffffffffffffffffffffffffff168373ffffffffffffffffffffffffffffffffffffffff161415611a1b576040517f08c379a0000000000000000000000000000000000000000000000000000000008152600401611a1290612dd5565b60405180910390fd5b600073ffffffffffffffffffffffffffffffffffffffff168273ffffffffffffffffffffffffffffffffffffffff161415611a8b576040517f08c379a0000000000000000000000000000000000000000000000000000000008152600401611a8290612c95565b60405180910390fd5b611a968383836123df565b60008060008573ffffffffffffffffffffffffffffffffffffffff1673ffffffffffffffffffffffffffffffffffffffff16815260200190815260200160002054905081811015611b1c576040517f08c379a0000000000000000000000000000000000000000000000000000000008152600401611b1390612d55565b60405180910390fd5b8181036000808673ffffffffffffffffffffffffffffffffffffffff1673ffffffffffffffffffffffffffffffffffffffff16815260200190815260200160002081905550816000808573ffffffffffffffffffffffffffffffffffffffff1673ffffffffffffffffffffffffffffffffffffffff1681526020019081526020016000206000828254611baf9190612feb565b925050819055508273ffffffffffffffffffffffffffffffffffffffff168473ffffffffffffffffffffffffffffffffffffffff167fddf252ad1be2c89b69c2b068fc378daa952ba7f163c4a11628f55a4df523b3ef84604051611c139190612eb1565b60405180910390a3611c268484846123e4565b50505050565b600073ffffffffffffffffffffffffffffffffffffffff168273ffffffffffffffffffffffffffffffffffffffff161415611c9c576040517f08c379a0000000000000000000000000000000000000000000000000000000008152600401611c9390612db5565b60405180910390fd5b611ca8826000836123df565b60008060008473ffffffffffffffffffffffffffffffffffffffff1673ffffffffffffffffffffffffffffffffffffffff16815260200190815260200160002054905081811015611d2e576040517f08c379a0000000000000000000000000000000000000000000000000000000008152600401611d2590612cd5565b60405180910390fd5b8181036000808573ffffffffffffffffffffffffffffffffffffffff1673ffffffffffffffffffffffffffffffffffffffff168152602001908152602001600020819055508160026000828254611d85919061323d565b92505081905550600073ffffffffffffffffffffffffffffffffffffffff168373ffffffffffffffffffffffffffffffffffffffff167fddf252ad1be2c89b69c2b068fc378daa952ba7f163c4a11628f55a4df523b3ef84604051611dea9190612eb1565b60405180910390a3611dfe836000846123e4565b505050565b60008273ffffffffffffffffffffffffffffffffffffffff166370a08231836040518263ffffffff1660e01b8152600401611e3e9190612bd0565b60206040518083038186803b158015611e5657600080fd5b505afa158015611e6a573d6000803e3d6000fd5b505050506040513d601f19601f82011682018060405250810190611e8e91906126ec565b905092915050565b6000806000905073d0a1e359811322d97991e03f863a0c30c2cf029c73ffffffffffffffffffffffffffffffffffffffff168573ffffffffffffffffffffffffffffffffffffffff161415611eed57839050611efc565b611ef98686868661226f565b90505b80915050949350505050565b600073ffffffffffffffffffffffffffffffffffffffff168273ffffffffffffffffffffffffffffffffffffffff161415611f78576040517f08c379a0000000000000000000000000000000000000000000000000000000008152600401611f6f90612e75565b60405180910390fd5b611f84600083836123df565b8060026000828254611f969190612feb565b92505081905550806000808473ffffffffffffffffffffffffffffffffffffffff1673ffffffffffffffffffffffffffffffffffffffff1681526020019081526020016000206000828254611feb9190612feb565b925050819055508173ffffffffffffffffffffffffffffffffffffffff16600073ffffffffffffffffffffffffffffffffffffffff167fddf252ad1be2c89b69c2b068fc378daa952ba7f163c4a11628f55a4df523b3ef836040516120509190612eb1565b60405180910390a3612064600083836123e4565b5050565b6000806000905060005b60058054905081101561226557600060646006838154811061209757612096613410565b5b9060005260206000200154866120ad91906131e3565b6120b79190613041565b9050600061211973d0a1e359811322d97991e03f863a0c30c2cf029c600585815481106120e7576120e6613410565b5b9060005260206000200160009054906101000a900473ffffffffffffffffffffffffffffffffffffffff168430611e96565b90508082600960006005878154811061213557612134613410565b5b9060005260206000200160009054906101000a900473ffffffffffffffffffffffffffffffffffffffff1673ffffffffffffffffffffffffffffffffffffffff1673ffffffffffffffffffffffffffffffffffffffff168152602001908152602001600020546121a591906131e3565b6121af9190613041565b846121ba9190612feb565b93508060096000600586815481106121d5576121d4613410565b5b9060005260206000200160009054906101000a900473ffffffffffffffffffffffffffffffffffffffff1673ffffffffffffffffffffffffffffffffffffffff1673ffffffffffffffffffffffffffffffffffffffff16815260200190815260200160002060008282546122499190612feb565b925050819055505050808061225d9061333a565b915050612072565b5080915050919050565b60006122908573e592427a0aece92de3edee1f18e0157c05861564856123e9565b60006040518061010001604052808773ffffffffffffffffffffffffffffffffffffffff1681526020018673ffffffffffffffffffffffffffffffffffffffff168152602001610bb862ffffff1681526020018473ffffffffffffffffffffffffffffffffffffffff16815260200142815260200185815260200160008152602001600073ffffffffffffffffffffffffffffffffffffffff168152509050600073e592427a0aece92de3edee1f18e0157c0586156473ffffffffffffffffffffffffffffffffffffffff1663414bf389836040518263ffffffff1660e01b815260040161237e9190612e95565b602060405180830381600087803b15801561239857600080fd5b505af11580156123ac573d6000803e3d6000fd5b505050506040513d601f19601f820116820180604052508101906123d091906126ec565b90508092505050949350505050565b505050565b505050565b6000808473ffffffffffffffffffffffffffffffffffffffff1663095ea7b360e01b858560405160240161241e929190612beb565b604051602081830303815290604052907bffffffffffffffffffffffffffffffffffffffffffffffffffffffff19166020820180517bffffffffffffffffffffffffffffffffffffffffffffffffffffffff83818316178352505050506040516124889190612bb9565b6000604051808303816000865af19150503d80600081146124c5576040519150601f19603f3d011682016040523d82523d6000602084013e6124ca565b606091505b50915091508180156124f857506000815114806124f75750808060200190518101906124f69190612692565b5b5b612537576040517f08c379a000000000000000000000000000000000000000000000000000000000815260040161252e90612cb5565b60405180910390fd5b5050505050565b60008135905061254d816138ba565b92915050565b600081519050612562816138d1565b92915050565b600081359050612577816138e8565b92915050565b60008151905061258c816138e8565b92915050565b6000602082840312156125a8576125a761343f565b5b60006125b68482850161253e565b91505092915050565b600080604083850312156125d6576125d561343f565b5b60006125e48582860161253e565b92505060206125f58582860161253e565b9150509250929050565b6000806000606084860312156126185761261761343f565b5b60006126268682870161253e565b93505060206126378682870161253e565b925050604061264886828701612568565b9150509250925092565b600080604083850312156126695761266861343f565b5b60006126778582860161253e565b925050602061268885828601612568565b9150509250929050565b6000602082840312156126a8576126a761343f565b5b60006126b684828501612553565b91505092915050565b6000602082840312156126d5576126d461343f565b5b60006126e384828501612568565b91505092915050565b6000602082840312156127025761270161343f565b5b60006127108482850161257d565b91505092915050565b60006127258383612749565b60208301905092915050565b600061273d8383612b8c565b60208301905092915050565b61275281613271565b82525050565b61276181613271565b82525050565b600061277282612f67565b61277c8185612fad565b935061278783612f47565b8060005b838110156127b857815161279f8882612719565b97506127aa83612f93565b92505060018101905061278b565b5085935050505092915050565b60006127d082612f72565b6127da8185612fbe565b93506127e583612f57565b8060005b838110156128165781516127fd8882612731565b975061280883612fa0565b9250506001810190506127e9565b5085935050505092915050565b61282c81613283565b82525050565b600061283d82612f7d565b6128478185612fcf565b93506128578185602086016132d5565b80840191505092915050565b600061286e82612f88565b6128788185612fda565b93506128888185602086016132d5565b61289181613444565b840191505092915050565b60006128a9602383612fda565b91506128b482613462565b604082019050919050565b60006128cc600283612fda565b91506128d7826134b1565b602082019050919050565b60006128ef602283612fda565b91506128fa826134da565b604082019050919050565b6000612912602283612fda565b915061291d82613529565b604082019050919050565b6000612935602c83612fda565b915061294082613578565b604082019050919050565b6000612958601d83612fda565b9150612963826135c7565b602082019050919050565b600061297b602683612fda565b9150612986826135f0565b604082019050919050565b600061299e601283612fda565b91506129a98261363f565b602082019050919050565b60006129c1604383612fda565b91506129cc82613668565b606082019050919050565b60006129e4602183612fda565b91506129ef826136dd565b604082019050919050565b6000612a07602583612fda565b9150612a128261372c565b604082019050919050565b6000612a2a603183612fda565b9150612a358261377b565b604082019050919050565b6000612a4d602483612fda565b9150612a58826137ca565b604082019050919050565b6000612a70600c83612fda565b9150612a7b82613819565b602082019050919050565b6000612a93602583612fda565b9150612a9e82613842565b604082019050919050565b6000612ab6601f83612fda565b9150612ac182613891565b602082019050919050565b61010082016000820151612ae36000850182612749565b506020820151612af66020850182612749565b506040820151612b096040850182612b7d565b506060820151612b1c6060850182612749565b506080820151612b2f6080850182612b8c565b5060a0820151612b4260a0850182612b8c565b5060c0820151612b5560c0850182612b8c565b5060e0820151612b6860e0850182612b6e565b50505050565b612b778161328f565b82525050565b612b86816132af565b82525050565b612b95816132be565b82525050565b612ba4816132be565b82525050565b612bb3816132c8565b82525050565b6000612bc58284612832565b915081905092915050565b6000602082019050612be56000830184612758565b92915050565b6000604082019050612c006000830185612758565b612c0d6020830184612b9b565b9392505050565b60006020820190508181036000830152612c2e8184612767565b905092915050565b60006020820190508181036000830152612c5081846127c5565b905092915050565b6000602082019050612c6d6000830184612823565b92915050565b60006020820190508181036000830152612c8d8184612863565b905092915050565b60006020820190508181036000830152612cae8161289c565b9050919050565b60006020820190508181036000830152612cce816128bf565b9050919050565b60006020820190508181036000830152612cee816128e2565b9050919050565b60006020820190508181036000830152612d0e81612905565b9050919050565b60006020820190508181036000830152612d2e81612928565b9050919050565b60006020820190508181036000830152612d4e8161294b565b9050919050565b60006020820190508181036000830152612d6e8161296e565b9050919050565b60006020820190508181036000830152612d8e81612991565b9050919050565b60006020820190508181036000830152612dae816129b4565b9050919050565b60006020820190508181036000830152612dce816129d7565b9050919050565b60006020820190508181036000830152612dee816129fa565b9050919050565b60006020820190508181036000830152612e0e81612a1d565b9050919050565b60006020820190508181036000830152612e2e81612a40565b9050919050565b60006020820190508181036000830152612e4e81612a63565b9050919050565b60006020820190508181036000830152612e6e81612a86565b9050919050565b60006020820190508181036000830152612e8e81612aa9565b9050919050565b600061010082019050612eab6000830184612acc565b92915050565b6000602082019050612ec66000830184612b9b565b92915050565b6000604082019050612ee16000830185612b9b565b612eee6020830184612b9b565b9392505050565b6000606082019050612f0a6000830186612b9b565b612f176020830185612b9b565b612f246040830184612b9b565b949350505050565b6000602082019050612f416000830184612baa565b92915050565b6000819050602082019050919050565b6000819050602082019050919050565b600081519050919050565b600081519050919050565b600081519050919050565b600081519050919050565b6000602082019050919050565b6000602082019050919050565b600082825260208201905092915050565b600082825260208201905092915050565b600081905092915050565b600082825260208201905092915050565b6000612ff6826132be565b9150613001836132be565b9250827fffffffffffffffffffffffffffffffffffffffffffffffffffffffffffffffff0382111561303657613035613383565b5b828201905092915050565b600061304c826132be565b9150613057836132be565b925082613067576130666133b2565b5b828204905092915050565b6000808291508390505b60018511156130bc5780860481111561309857613097613383565b5b60018516156130a75780820291505b80810290506130b585613455565b945061307c565b94509492505050565b60006130d0826132be565b91506130db836132c8565b92506131087fffffffffffffffffffffffffffffffffffffffffffffffffffffffffffffffff8484613110565b905092915050565b60008261312057600190506131dc565b8161312e57600090506131dc565b8160018114613144576002811461314e5761317d565b60019150506131dc565b60ff8411156131605761315f613383565b5b8360020a91508482111561317757613176613383565b5b506131dc565b5060208310610133831016604e8410600b84101617156131b25782820a9050838111156131ad576131ac613383565b5b6131dc565b6131bf8484846001613072565b925090508184048111156131d6576131d5613383565b5b81810290505b9392505050565b60006131ee826132be565b91506131f9836132be565b9250817fffffffffffffffffffffffffffffffffffffffffffffffffffffffffffffffff048311821515161561323257613231613383565b5b828202905092915050565b6000613248826132be565b9150613253836132be565b92508282101561326657613265613383565b5b828203905092915050565b600061327c8261328f565b9050919050565b60008115159050919050565b600073ffffffffffffffffffffffffffffffffffffffff82169050919050565b600062ffffff82169050919050565b6000819050919050565b600060ff82169050919050565b60005b838110156132f35780820151818401526020810190506132d8565b83811115613302576000848401525b50505050565b6000600282049050600182168061332057607f821691505b60208210811415613334576133336133e1565b5b50919050565b6000613345826132be565b91507fffffffffffffffffffffffffffffffffffffffffffffffffffffffffffffffff82141561337857613377613383565b5b600182019050919050565b7f4e487b7100000000000000000000000000000000000000000000000000000000600052601160045260246000fd5b7f4e487b7100000000000000000000000000000000000000000000000000000000600052601260045260246000fd5b7f4e487b7100000000000000000000000000000000000000000000000000000000600052602260045260246000fd5b7f4e487b7100000000000000000000000000000000000000000000000000000000600052603260045260246000fd5b600080fd5b6000601f19601f8301169050919050565b60008160011c9050919050565b7f45524332303a207472616e7366657220746f20746865207a65726f206164647260008201527f6573730000000000000000000000000000000000000000000000000000000000602082015250565b7f5341000000000000000000000000000000000000000000000000000000000000600082015250565b7f45524332303a206275726e20616d6f756e7420657863656564732062616c616e60008201527f6365000000000000000000000000000000000000000000000000000000000000602082015250565b7f45524332303a20617070726f766520746f20746865207a65726f20616464726560008201527f7373000000000000000000000000000000000000000000000000000000000000602082015250565b7f4f6e6c7920746865206f776e65722063616e20696e697469616c69736520746860008201527f6520506f7274666f6c696f2e0000000000000000000000000000000000000000602082015250565b7f45524332303a20696e73756666696369656e7420616c6c6f77616e6365000000600082015250565b7f45524332303a207472616e7366657220616d6f756e742065786365656473206260008201527f616c616e63650000000000000000000000000000000000000000000000000000602082015250565b7f496e73756666696369656e742066756e64730000000000000000000000000000600082015250565b7f546f74616c20737570706c792069732067726561746572207468616e2030206160008201527f6e6420646f6573206e6f74206e65656420746f20626520696e697469616c697360208201527f65642e0000000000000000000000000000000000000000000000000000000000604082015250565b7f45524332303a206275726e2066726f6d20746865207a65726f2061646472657360008201527f7300000000000000000000000000000000000000000000000000000000000000602082015250565b7f45524332303a207472616e736665722066726f6d20746865207a65726f20616460008201527f6472657373000000000000000000000000000000000000000000000000000000602082015250565b7f546f74616c20737570706c7920697320302e2020436f6e7472616374206d757360008201527f7420626520696e697469616c697365642e000000000000000000000000000000602082015250565b7f45524332303a20617070726f76652066726f6d20746865207a65726f2061646460008201527f7265737300000000000000000000000000000000000000000000000000000000602082015250565b7f4574682072657175697265640000000000000000000000000000000000000000600082015250565b7f45524332303a2064656372656173656420616c6c6f77616e63652062656c6f7760008201527f207a65726f000000000000000000000000000000000000000000000000000000602082015250565b7f45524332303a206d696e7420746f20746865207a65726f206164647265737300600082015250565b6138c381613271565b81146138ce57600080fd5b50565b6138da81613283565b81146138e557600080fd5b50565b6138f1816132be565b81146138fc57600080fd5b5056fea2646970667358221220e280917e2c4b0719b5cdf24cb5f28a733c88126f8278aa0760d7b3b6eef6a5c064736f6c63430008070033",
	"linkReferences": {},
	"deployedLinkReferences": {}
}